{
  "contractName": "Ticket_Manage",
  "abi": [
    {
      "constant": true,
      "inputs": [],
      "name": "ticketCount",
      "outputs": [
        {
          "internalType": "uint256",
          "name": "",
          "type": "uint256"
        }
      ],
      "payable": false,
      "stateMutability": "view",
      "type": "function"
    }
  ],
  "bytecode": "0x6080604052600a600055348015601457600080fd5b506084806100236000396000f3fe6080604052348015600f57600080fd5b506004361060285760003560e01c8063cfbd900f14602d575b600080fd5b60336049565b6040518082815260200191505060405180910390f35b6000548156fea265627a7a723158209232384b4d6feac57ca18acf31b8180d31e955fbe1026e3c7f9143018a65bc6b64736f6c63430005100032",
  "source": "// SPDX-License-Identifier: MIT\r\npragma solidity >=0.4.22 <0.9.0;\r\n\r\n/**\r\n * The Ticket_Manage contract\r\n */\r\ncontract Ticket_Manage {\r\n    uint256 public ticketCount = 10;\r\n    \r\n}\r\n",
  "sourcePath": "C:\\Users\\VASU\\Documents\\github\\dec-ticket\\src\\contracts\\Ticket_Manage.sol",
  "compiler": {
    "name": "solc",
    "version": "0.5.16+commit.9c3226ce.Emscripten.clang"
  },
  "schemaVersion": "3.4.7",
  "updatedAt": "2022-06-22T00:41:56.249Z",
  "networkType": "ethereum",
  "devdoc": {
    "methods": {}
  },
  "userdoc": {
    "methods": {},
    "notice": "The Ticket_Manage contract"
  }
}